:100000000C9434000C9451000C9451000C94510049
:100010000C9451000C9451000C9451000C9451001C
:100020000C9451000C9451000C9451000C9451000C
:100030000C9451000C9451000C948F000C945100BE
:100040000C9451000C9451000C9451000C945100EC
:100050000C9451000C9451000C9451000C945100DC
:100060000C9451000C94510011241FBECFEFD8E026
:10007000DEBFCDBF11E0A0E0B1E0E6E2FFE002C0EC
:1000800005900D92A63BB107D9F721E0A6EBB1E0B0
:1000900001C01D92AE3BB207E1F70E9471040C94BF
:1000A00091070C9400009093C5008093C40088E1F0
:1000B0008093C1008EE08093C2000895E0ECF0E0F0
:1000C000908195FFFDCF8093C60008951F93CF9335
:1000D000DF93EC018881882351F010E00E945E00DC
:1000E0001F5FFE01E10FF11D80818111F7CFDF91CC
:1000F000CF911F9108958DE00E945E008AE00E94DA
:100100005E0008950E9466000E947B000895E0EC66
:10011000F0E080818823ECF78091C60008951F925B
:100120000F920FB60F9211242F933F934F935F932B
:100130006F937F938F939F93AF93BF93EF93FF93AF
:100140006091B6017091B7018091B8019091B901A9
:100150002DEC3CEC4CEC5FE30E94BD046093B601D7
:100160007093B7018093B8019093B901FF91EF911B
:10017000BF91AF919F918F917F916F915F914F91BF
:100180003F912F910F900FBE0F901F90189553988D
:100190005598569821982298239884B5806484BDF8
:1001A00085B5886085BDE0E8F0E08081806480836B
:1001B000808180688083808180618083808180628B
:1001C0008083808181608083E1E8F0E080818860C5
:1001D0008083808181608083808182608083E0EB86
:1001E000F0E080818068808380818064808380816A
:1001F000806280838081806180838081826080834F
:10020000808181608083E1EBF0E080818460808385
:10021000089584B5826084BDEEE6F0E0808182605E
:100220008083789485B5846085BD0895CF93DF93EE
:10023000EC01198688810E945E0086E091E00E94B0
:1002400066008881833481F028F4813449F0823457
:1002500049F011C0853461F048F0863459F00BC084
:10026000539A09C0559A07C0569A05C0219A03C0EF
:10027000229A01C0239A0E947B00DF91CF910895BA
:10028000CF93DF93EC0181E0898788810E945E0033
:100290008EE091E00E9466008881833481F028F42A
:1002A000813449F0823449F011C0853461F048F05E
:1002B000863459F00BC0539809C0559807C056981A
:1002C00005C0219803C0229801C023980E947B009A
:1002D000DF91CF9108952F923F924F925F926F924C
:1002E0007F928F929F92AF92BF92CF92DF92EF92C6
:1002F000FF920F931F93CF93DF938C0187E191E0DF
:100300000E948200F8016280662009F4C9C0C081A1
:10031000D181F12C712C812C912CA12CBD80CE800F
:10032000DF80E884272D382D492D5A2D6B2D7C2D0B
:100330008D2D9E2D0E940306181624F47B2C8C2CE8
:100340009D2CAE2CF3942A96F610E8CF81C02C2F6A
:1003500030E0C901880F991F220F331F220F331F6E
:10036000220F331F280F391FF80180819181820FDE
:10037000931F0E941601CF5FF8018281C81738F3DE
:1003800049C06091B6017091B7018091B801909118
:10039000B901C32DD0E09E01220F331FCC0FDD1F0A
:1003A000CC0FDD1FCC0FDD1FC20FD31FF801208142
:1003B0003181C20FD31FA30192010E94BC046B01C3
:1003C0007C0120E030E04AE754E46D817E818F813A
:1003D00098850E9407069B01AC01C701B6010E94E7
:1003E000030688233CF0898581110DC0CE010E944F
:1003F000400109C088810E945E0081E391E00E9473
:1004000066000E947B003394F8018281381608F45C
:10041000B8CF01C0212CC090B601D090B701E090B8
:10042000B801F090B90120E030E04AE754E4C5019A
:10043000B4010E94BD04A70196010E94030618168C
:100440000CF046C0F8018281882329F3322C99CF21
:10045000C090B601D090B701E090B801F090B9011A
:1004600020E030E04AE754E4672D782D892D9A2D5D
:100470000E9407060E94250580E090E00E94510539
:10048000A70196010E94BD044B015C014090B6019A
:100490005090B7016090B8017090B901C0E057CF9B
:1004A0006091B6017091B7018091B8019091B90146
:1004B00020E030E0A9010E94BD044B015C014090A6
:1004C000B6015090B7016090B8017090B901A2CF09
:1004D000DF91CF911F910F91FF90EF90DF90CF9020
:1004E000BF90AF909F908F907F906F905F904F9054
:1004F0003F902F9008958F929F92AF92BF92CF928C
:10050000DF92EF92FF920F931F93CF93DF938C01B3
:1005100083E491E00E948200F80192808380890C3C
:10052000981408F047C0892D90E0EC01CC0FDD1F36
:10053000880F991F880F991F880F991FC80FD91FFF
:10054000F801A080B180AC0EBD1EC090B601D09065
:10055000B701E090B801F090B90120E030E04AE73F
:1005600054E4F50165817681878190850E940706B4
:10057000A70196010E94BD046B017C01C5010E9488
:1005800016012091B6013091B7014091B801509108
:10059000B901C701B6010E940306181694F3F801C9
:1005A000808191818C0F9D1F0E944001939498142B
:1005B00008F4B9CFDF91CF911F910F91FF90EF9089
:1005C000DF90CF90BF90AF909F908F90089588E676
:1005D00090E00E9453000E9409010E94C70026E992
:1005E0002093B40084E688BD87BD86E990E09093AF
:1005F00089008093880090938B0080938A002093D9
:10060000B30008956F927F928F929F92AF92BF92A4
:10061000CF92DF92EF92FF920F931F93CF93DF93CE
:100620008CE390E00E946A065C018FE591E00E94F5
:1006300066000E948700C82F8FE591E00E94660047
:100640000E9487000F2EF0ED8F2EF02D8C0E0F2EB6
:10065000F0ED7F2EF02D780E872D90E0880D911D06
:1006600007970CF003C186E0881508F402C18715CE
:1006700008F402C1882009F465C0E501912C8FE5DA
:1006800091E00E9466000E94870088838154863032
:1006900008F0F5C08FE591E00E9466000E94870097
:1006A0000F2EF0EDFF2EF02DF80EE8E0EF1508F418
:1006B000E9C00E9487008E3209F0E7C00E948700DF
:1006C0000F2EF0ED6F2EF02D680EF9E0F61508F400
:1006D000DFC06F2D70E080E090E00E9451056B015B
:1006E0007C01662D70E080E090E00E9451052DECC9
:1006F0003CEC4CEC5DE30E9407069B01AC01C7019A
:10070000B6010E94BD046B017C01FE01618372830E
:100710008383948320E030E0A9010E94210588238F
:100720000CF4B9C020E030E040E051E4C701B6016C
:100730000E94030618160CF4B1C093942A968910EF
:100740009ECF01C0912C192D170D772011F0911615
:1007500018F011116EC07BC08FE591E00E94660019
:10076000892D90E0EC01CC0FDD1F880F991F880FB9
:10077000991F880F991FC80FD91FCA0DDB1D0E9432
:10078000870088838154863008F08BC08FE591E024
:100790000E9466000E94870000ED080F093008F0F3
:1007A00083C00E9487008E3209F081C00E948700BA
:1007B0000F2EF0ED6F2EF02D680EF9E0F61508F40F
:1007C00079C0602F70E080E090E00E9451056B01DD
:1007D0007C01662D70E080E090E00E9451052DECD8
:1007E0003CEC4CEC5DE30E9407069B01AC01C701A9
:1007F000B6010E94BD046B017C0169837A838B83FF
:100800009C8320E030E0A9010E94210588230CF49C
:1008100054C020E030E040E051E4C701B6010E943E
:10082000030618160CF44CC09394911608F494CF58
:1008300090CFF50120E081819281A381B4818583ED
:100840009683A783B0872F5F3A962113F4CF8FE565
:1008500091E00E94660084E090E00E946A06FC013C
:10086000B182A082828273829F2F2CC080E090E0B0
:1008700029C080E090E026C080E090E023C080E0C6
:1008800090E020C080E090E01DC080E090E01AC0C1
:1008900080E090E017C080E090E014C080E090E03D
:1008A00011C080E090E00EC080E090E00BC080E0DE
:1008B00090E008C080E090E005C080E090E002C0D9
:1008C00080E090E0DF91CF911F910F91FF90EF902A
:1008D000DF90CF90BF90AF909F908F907F906F9060
:1008E00008950E94E70200E010E082E691E00E9495
:1008F00082000E948700823589F50E940203EC0184
:10090000009739F40E947B0089E691E00E94820002
:10091000ECCF0E947B008A81882361F0CE010E9487
:100920006B012FEF83ED90E3215080409040E1F781
:1009300000C000008B81882361F0CE010E947B0201
:100940002FEF83ED90E3215080409040E1F700C00D
:1009500000008BE891E00E94820006C08DE991E0E2
:100960000E948200C02FD12F888199810E940207A6
:10097000CE010E940207B9CF5058BB27AA270ED03C
:1009800008C1F9D030F0FED020F031F49F3F11F4CF
:100990001EF4EEC00EF4E095E7FBE4C0E92F0AD1A7
:1009A00080F3BA17620773078407950718F071F48C
:1009B0009EF522C10EF4E0950B2EBA2FA02D0B014F
:1009C000B90190010C01CA01A0011124FF27591B94
:1009D00099F0593F50F4503E68F11A16F040A22F9A
:1009E000232F342F4427585FF3CF4695379527950B
:1009F000A795F0405395C9F77EF41F16BA0B620B0A
:100A0000730B840BBAF09150A1F0FF0FBB1F661F50
:100A1000771F881FC2F70EC0BA0F621F731F841F93
:100A200048F4879577956795B795F7959E3F08F0B9
:100A3000B3CF9395880F08F09927EE0F9795879578
:100A400008956CD008F481E00895BCD088F09F57D9
:100A500090F0B92F9927B751A0F0D1F0660F771F0A
:100A6000881F991F1AF0BA95C9F712C0B13081F0EA
:100A7000C3D0B1E00895C0C0672F782F8827B85F32
:100A800039F0B93FCCF3869577956795B395D9F74B
:100A90003EF490958095709561957F4F8F4F9F4F55
:100AA0000895E89409C097FB3EF490958095709561
:100AB00061957F4F8F4F9F4F9923A9F0F92F96E9AA
:100AC000BB279395F695879577956795B795F1111F
:100AD000F8CFFAF4BB0F11F460FF1BC06F5F7F4FBC
:100AE0008F4F9F4F16C0882311F096E911C07723CE
:100AF00021F09EE8872F762F05C0662371F096E8D7
:100B0000862F70E060E02AF09A95660F771F881FA5
:100B1000DAF7880F9695879597F90895990F000849
:100B2000550FAA0BE0E8FEEF16161706E807F907BF
:100B3000C0F012161306E407F50798F0621B730B5A
:100B4000840B950B39F40A2661F0232B242B252BDB
:100B500021F408950A2609F4A140A6958FEF811D7E
:100B6000811D089597F99F6780E870E060E008951F
:100B70009FEF80EC089500240A94161617061806B5
:100B80000906089500240A94121613061406050691
:100B90000895092E0394000C11F4882352F0BB0F22
:100BA00040F4BF2B11F460FF04C06F5F7F4F8F4F85
:100BB0009F4F089557FD9058440F551F59F05F3FC0
:100BC00071F04795880F97FB991F61F09F3F79F06F
:100BD00087950895121613061406551FF2CF4695F1
:100BE000F1DF08C0161617061806991FF1CF869573
:100BF0007105610508940895E894BB276627772757
:100C0000CB0197F908958ADF08F48FEF08950BD090
:100C1000C0CFB1DF28F0B6DF18F0952309F0A2CFDE
:100C2000A7CF1124EACFC6DFA0F3959FD1F3950F8C
:100C300050E0551F629FF001729FBB27F00DB11D60
:100C4000639FAA27F00DB11DAA1F649F6627B00DF0
:100C5000A11D661F829F2227B00DA11D621F739FD9
:100C6000B00DA11D621F839FA00D611D221F749FE7
:100C70003327A00D611D231F849F600D211D822F2E
:100C8000762F6A2F11249F5750408AF0E1F0882375
:100C90004AF0EE0FFF1FBB1F661F771F881F915082
:100CA0005040A9F79E3F510570F05CCFA6CF5F3F43
:100CB000ECF3983EDCF3869577956795B795F795B5
:100CC000E7959F5FC1F7FE2B880F911D969587953D
:100CD00097F90895CF93DF938230910510F482E065
:100CE00090E0E091BC01F091BD0120E030E0A0E097
:100CF000B0E0309739F14081518148175907B8F079
:100D00004817590771F482819381109729F013963F
:100D10009C938E9312972CC09093BD018093BC013D
:100D200027C02115310531F04217530718F0A901EA
:100D3000DB0101C0EF019A01BD01DF010280F381F7
:100D4000E02DD7CF21153105F9F0281B390B2430C0
:100D5000310580F48A819B816115710521F0FB01C9
:100D60009383828304C09093BD018093BC01FE01F4
:100D7000329644C0FE01E20FF31F819391932250FB
:100D80003109398328833AC02091BA013091BB01DF
:100D9000232B41F420910201309103013093BB01D8
:100DA0002093BA01209100013091010121153105F4
:100DB00041F42DB73EB74091040150910501241B29
:100DC000350BE091BA01F091BB01E217F307A0F4F3
:100DD0002E1B3F0B2817390778F0AC014E5F5F4F91
:100DE0002417350748F04E0F5F1F5093BB01409307
:100DF000BA018193919302C0E0E0F0E0CF01DF916E
:100E0000CF910895CF93DF93009709F487C0FC0139
:100E1000329713821282C091BC01D091BD012097FC
:100E200081F420813181280F391F8091BA0190917E
:100E3000BB018217930779F5F093BB01E093BA01E8
:100E40006DC0DE0120E030E0AE17BF0750F412960F
:100E50004D915C9113979D014115510509F1DA01FE
:100E6000F3CFB383A28340815181840F951F8A17EA
:100E70009B0771F48D919C911197840F951F029699
:100E80009183808312968D919C9113979383828393
:100E90002115310529F4F093BD01E093BC013EC05A
:100EA000D9011396FC93EE9312974D915D91A40F87
:100EB000B51FEA17FB0779F480819181840F951F94
:100EC0000296D90111969C938E93828193811396F9
:100ED0009C938E931297E0E0F0E08A819B810097CB
:100EE00019F0FE01EC01F9CFCE010296288139817B
:100EF000820F931F2091BA013091BB012817390747
:100F000069F4309729F41092BD011092BC0102C01F
:100F100013821282D093BB01C093BA01DF91CF91AB
:060F20000895F894FFCFD4
:100F26000000BE012000206973206F6E2100206939
:100F360073206F6666210044697370656E73696E0F
:100F46006720706172616C6C656C2070756D707372
:100F560000206973207374696C6C2072756E6E69FB
:100F66006E670044697370656E73696E672073659A
:100F76007175656E7469616C2070756D7073004F64
:100F86004B0052656164792E004552524F523A2009
:100F96004661696C656420746F2070726F63657357
:100FA600732072657175657374210052657175657C
:100FB600737420636F6D706C6574656400496E763A
:100FC600616C6964207265717565737420636F6DF9
:060FD6006D616E64000075
:00000001FF
