:100000000C9434000C9451000C9451000C94510049
:100010000C9451000C9451000C9451000C9451001C
:100020000C9451000C9451000C9451000C9451000C
:100030000C9451000C9451000C948F000C945100BE
:100040000C9451000C9451000C9451000C945100EC
:100050000C9451000C9451000C9451000C945100DC
:100060000C9451000C94510011241FBECFEFD8E026
:10007000DEBFCDBF11E0A0E0B1E0EEE3FDE002C0E5
:1000800005900D92AE3CB107D9F721E0AEECB1E09E
:1000900001C01D92A43DB207E1F70E9488030C94B1
:1000A0009D060C9400009093C5008093C40088E1E5
:1000B0008093C1008EE08093C2000895E0ECF0E0F0
:1000C000908195FFFDCF8093C60008951F93CF9335
:1000D000DF93EC018881882351F010E00E945E00DC
:1000E0001F5FFE01E10FF11D80818111F7CFDF91CC
:1000F000CF911F9108958DE00E945E008AE00E94DA
:100100005E0008950E9466000E947B000895E0EC66
:10011000F0E080818823ECF78091C60008951F925B
:100120000F920FB60F9211248F939F938091CE015F
:100130009091CF0104969093CF018093CE019F912F
:100140008F910F900FBE0F901F90189584B582600D
:1001500084BD89EF87BDEEE6F0E080818260808318
:10016000789485B5846085BD0895CF93DF93EC01C5
:10017000198688810E945E0086E091E00E946600F8
:100180008881813419F484E68093B4000E947B0056
:10019000DF91CF910895CF93DF93EC0181E08987C0
:1001A00088810E945E008EE091E00E946600888156
:1001B000813419F48FEF8093B4000E947B00DF91AB
:1001C000CF9108956F927F928F929F92AF92BF923C
:1001D000CF92DF92EF92FF920F931F93CF93DF9313
:1001E0008C0187E191E00E948200F80182808820E2
:1001F00009F4AAC0C081D181F12C612C712C912C01
:10020000A12CB980CA80DB80EC80262D372D492DAA
:100210005A2D6B2D7C2D8D2D9E2D0E940F051816AD
:1002200024F46B2C7C2C9D2CAE2CF3942A96F81085
:10023000E8CF71C02C2F30E0C901880F991F220F21
:10024000331F220F331F220F331F280F391FF801CE
:1002500080819181820F931F0E94B500CF5FF801CA
:100260008281C81738F346C0C090CE01D090CF012C
:10027000872D90E07C01EE0CFF1C880F991F880FE2
:10028000991F880F991FE80EF91EF801C081D181CE
:10029000CE0DDF1DCA18DB0820E030E04AE754E449
:1002A00069817A818B819C810E9413050E943104AF
:1002B0006C157D0578F48985811115C081E391E085
:1002C0000E946600F801808191818E0D9F1D0E9421
:1002D000CB0009C088810E945E0089E491E00E9401
:1002E00066000E947B007394F8018281781608F4FE
:1002F000BBCF04C0FAE08F0E911C612C8091CE011F
:100300009091CF018815990540F5F80182818823E5
:10031000A9F3762CA9CFC091CE01D091CF0120E0D6
:1003200030E04AE754E4662D772D892D9A2D0E94FE
:1003300013050E9431044E01860E971EA090CE0137
:10034000B090CF01C0E076CF8090CE019090CF01E9
:10035000A090CE01B090CF01CDCFDF91CF911F9172
:100360000F91FF90EF90DF90CF90BF90AF909F9054
:100370008F907F906F900895AF92BF92CF92DF924F
:10038000EF92FF920F931F93CF93DF937C018BE546
:1003900091E00E948200F701B280A380AB0CBA14F6
:1003A000C8F58B2D90E0EC01CC0FDD1F880F991F55
:1003B000880F991F880F991FC80FD91FF701008157
:1003C00011810C0F1D1FC090CE01D090CF0120E0F5
:1003D00030E04AE754E4F8016181728183819481BD
:1003E0000E9413050E943104C60ED71EC8010E9448
:1003F000B5008091CE019091CF018C159D05C8F379
:10040000F701808191818C0F9D1F0E94CB00B394D6
:10041000BA1438F2DF91CF911F910F91FF90EF90B6
:10042000DF90CF90BF90AF90089587E690E00E9454
:1004300053000E94A60083EA8093B00084E080937A
:10044000B1008FEF8093B400539A08956F927F921A
:100450008F929F92AF92BF92CF92DF92EF92FF92D4
:100460000F931F93CF93DF938CE390E00E94760568
:100470008C0187E791E00E9466000E948700C82FE8
:1004800087E791E00E9466000E9487000F2EF0ED42
:100490008F2EF02D8C0E0F2EF0ED7F2EF02D780E7E
:1004A000872D90E0880D911D07970CF0F6C086E02F
:1004B000881508F4F5C0871508F4F5C0882009F4FC
:1004C00065C0E801912C87E791E00E9466000E94D8
:1004D000870088838154863008F0E8C087E791E080
:1004E0000E9466000E9487000F2EF0EDFF2EF02D77
:1004F000F80EE8E0EF1508F4DCC00E9487008E32A9
:1005000009F0DAC00E9487000F2EF0ED6F2EF02D5B
:10051000680EF9E0F61508F4D2C06F2D70E080E0A7
:1005200090E00E945D046B017C01662D70E080E02C
:1005300090E00E945D042DEC3CEC4CEC5DE30E94ED
:1005400013059B01AC01C701B6010E94C9036B01F1
:100550007C01FE01618372838383948320E030E019
:10056000A9010E942D0488230CF4ACC020E030E0E7
:1005700040E051E4C701B6010E940F0518160CF4C3
:10058000A4C093942A9689109ECF01C0912C772005
:1005900009F474C0B92CB70C9B1408F06FC087E73E
:1005A00091E00E946600892D90E0EC01CC0FDD1FE8
:1005B000880F991F880F991F880F991FC80FD91F7F
:1005C000C00FD11F0E94870088838154863008F0B5
:1005D0007FC087E791E00E9466000E9487000F2E8F
:1005E000F0EDFF2EF02DF80EF8E0FF1508F473C0C3
:1005F0000E9487008E3209F071C00E9487000F2E82
:10060000F0EDAF2EF02DA80E89E08A1508F469C030
:100610006F2D70E080E090E00E945D046B017C0132
:100620006A2D70E080E090E00E945D042DEC3CECCF
:100630004CEC5DE30E9413059B01AC01C701B601C0
:100640000E94C9036B017C0169837A838B839C833D
:1006500020E030E0A9010E942D0488230CF444C05E
:1006600020E030E040E051E4C701B6010E940F05F0
:100670001816ECF193949B1408F491CF87E791E05E
:100680000E94660084E090E00E947605FC011183E0
:100690000083828273829F2F2CC080E090E029C06B
:1006A00080E090E026C080E090E023C080E090E011
:1006B00020C080E090E01DC080E090E01AC080E0A3
:1006C00090E017C080E090E014C080E090E011C09E
:1006D00080E090E00EC080E090E00BC080E090E011
:1006E00008C080E090E005C080E090E002C080E0BB
:1006F00090E0DF91CF911F910F91FF90EF90DF90ED
:10070000CF90BF90AF909F908F907F906F90089503
:100710000E9415028AE791E00E9482000E948700F1
:10072000823589F50E942602EC01009739F40E9477
:100730007B0081E891E00E948200ECCF0E947B0068
:100740008A81882361F0CE010E94E2002FEF83EDC1
:1007500090E3215080409040E1F700C000008B8181
:10076000882361F0CE010E94BC012FEF83ED90E35E
:10077000215080409040E1F700C0000083EA91E002
:100780000E948200C7CF85EB91E00E948200C2CF19
:100790005058BB27AA270ED008C1F9D030F0FED0A0
:1007A00020F031F49F3F11F41EF4EEC00EF4E095FA
:1007B000E7FBE4C0E92F0AD180F3BA176207730799
:1007C0008407950718F071F49EF522C10EF4E095A8
:1007D0000B2EBA2FA02D0B01B90190010C01CA01FB
:1007E000A0011124FF27591B99F0593F50F4503EA6
:1007F00068F11A16F040A22F232F342F4427585F98
:10080000F3CF469537952795A795F0405395C9F7AF
:100810007EF41F16BA0B620B730B840BBAF0915067
:10082000A1F0FF0FBB1F661F771F881FC2F70EC006
:10083000BA0F621F731F841F48F4879577956795D9
:10084000B795F7959E3F08F0B3CF9395880F08F0C2
:100850009927EE0F9795879508956CD008F481E05D
:100860000895BCD088F09F5790F0B92F9927B751C1
:10087000A0F0D1F0660F771F881F991F1AF0BA9564
:10088000C9F712C0B13081F0C3D0B1E00895C0C043
:10089000672F782F8827B85F39F0B93FCCF386955A
:1008A00077956795B395D9F73EF4909580957095B7
:1008B00061957F4F8F4F9F4F0895E89409C097FB34
:1008C0003EF490958095709561957F4F8F4F9F4F27
:1008D0009923A9F0F92F96E9BB279395F69587956B
:1008E00077956795B795F111F8CFFAF4BB0F11F42E
:1008F00060FF1BC06F5F7F4F8F4F9F4F16C08823D5
:1009000011F096E911C0772321F09EE8872F762F0A
:1009100005C0662371F096E8862F70E060E02AF04B
:100920009A95660F771F881FDAF7880F9695879537
:1009300097F90895990F0008550FAA0BE0E8FEEF0C
:1009400016161706E807F907C0F012161306E40793
:10095000F50798F0621B730B840B950B39F40A268C
:1009600061F0232B242B252B21F408950A2609F46A
:10097000A140A6958FEF811D811D089597F99F676E
:1009800080E870E060E008959FEF80EC0895002417
:100990000A941616170618060906089500240A94E4
:1009A00012161306140605060895092E0394000C6A
:1009B00011F4882352F0BB0F40F4BF2B11F460FFF9
:1009C00004C06F5F7F4F8F4F9F4F089557FD905822
:1009D000440F551F59F05F3F71F04795880F97FB03
:1009E000991F61F09F3F79F08795089512161306BD
:1009F0001406551FF2CF4695F1DF08C016161706EC
:100A00001806991FF1CF8695710561050894089520
:100A1000E894BB2766277727CB0197F908958ADFEB
:100A200008F48FEF08950BD0C0CFB1DF28F0B6DF08
:100A300018F0952309F0A2CFA7CF1124EACFC6DF83
:100A4000A0F3959FD1F3950F50E0551F629FF001E1
:100A5000729FBB27F00DB11D639FAA27F00DB11D3A
:100A6000AA1F649F6627B00DA11D661F829F2227C3
:100A7000B00DA11D621F739FB00DA11D621F839F4A
:100A8000A00D611D221F749F3327A00D611D231F20
:100A9000849F600D211D822F762F6A2F11249F576E
:100AA00050408AF0E1F088234AF0EE0FFF1FBB1F91
:100AB000661F771F881F91505040A9F79E3F510530
:100AC00070F05CCFA6CF5F3FECF3983EDCF38695E9
:100AD00077956795B795F795E7959F5FC1F7FE2BDB
:100AE000880F911D9695879597F90895CF93DF9379
:100AF0008230910510F482E090E0E091D201F09113
:100B0000D30120E030E0A0E0B0E0309739F140813F
:100B1000518148175907B8F04817590771F4828175
:100B20009381109729F013969C938E9312972CC063
:100B30009093D3018093D20127C02115310531F064
:100B40004217530718F0A901DB0101C0EF019A0118
:100B5000BD01DF010280F381E02DD7CF21153105E2
:100B6000F9F0281B390B2430310580F48A819B81F0
:100B70006115710521F0FB019383828304C090937A
:100B8000D3018093D201FE01329644C0FE01E20FF0
:100B9000F31F8193919322503109398328833AC0FE
:100BA0002091D0013091D101232B41F420910201F9
:100BB000309103013093D1012093D00120910001A5
:100BC000309101012115310541F42DB73EB7409117
:100BD000040150910501241B350BE091D001F091E7
:100BE000D101E217F307A0F42E1B3F0B281739079A
:100BF00078F0AC014E5F5F4F2417350748F04E0F79
:100C00005F1F5093D1014093D0018193919302C013
:100C1000E0E0F0E0CF01DF91CF910895CF93DF9333
:100C2000009709F487C0FC01329713821282C091A9
:100C3000D201D091D301209781F420813181280FF6
:100C4000391F8091D0019091D1018217930779F5D6
:100C5000F093D101E093D0016DC0DE0120E030E0DF
:100C6000AE17BF0750F412964D915C9113979D01FA
:100C70004115510509F1DA01F3CFB383A283408115
:100C80005181840F951F8A179B0771F48D919C9158
:100C90001197840F951F02969183808312968D91F0
:100CA0009C911397938382832115310529F4F09346
:100CB000D301E093D2013EC0D9011396FC93EE9389
:100CC00012974D915D91A40FB51FEA17FB0779F4B8
:100CD00080819181840F951F0296D90111969C9372
:100CE0008E938281938113969C938E931297E0E06A
:100CF000F0E08A819B81009719F0FE01EC01F9CFA9
:100D0000CE01029628813981820F931F2091D00154
:100D10003091D1012817390769F4309729F41092DE
:100D2000D3011092D20102C013821282D093D1015A
:0E0D3000C093D001DF91CF910895F894FFCFCA
:100D3E000000D4012000206973206F6E210020690D
:100D4E0073206F6666210044697370656E73696EF9
:100D5E006720706172616C6C656C2070756D70735C
:100D6E0000546869732073686F756C642062652027
:100D7E00696E20686572652E002069732073746930
:100D8E006C6C2072756E6E696E6700446973706567
:100D9E006E73696E672073657175656E7469616CCB
:100DAE002070756D7073004F4B0052656164792E23
:100DBE00004552524F523A204661696C6564207468
:100DCE006F2070726F6365737320726571756573D2
:100DDE007421005265717565737420636F6D706C4C
:100DEE006574656400496E76616C69642072657124
:0E0DFE007565737420636F6D6D616E64000027
:00000001FF
